{
  "_format": "hh-sol-artifact-1",
  "contractName": "EIP712Message",
  "sourceName": "contracts/EIP712Message.sol",
  "abi": [
    {
      "inputs": [
        {
          "internalType": "string",
          "name": "name",
          "type": "string"
        },
        {
          "internalType": "string",
          "name": "version",
          "type": "string"
        }
      ],
      "stateMutability": "nonpayable",
      "type": "constructor"
    },
    {
      "inputs": [],
      "name": "InvalidShortString",
      "type": "error"
    },
    {
      "inputs": [
        {
          "internalType": "string",
          "name": "str",
          "type": "string"
        }
      ],
      "name": "StringTooLong",
      "type": "error"
    },
    {
      "anonymous": false,
      "inputs": [],
      "name": "EIP712DomainChanged",
      "type": "event"
    },
    {
      "inputs": [],
      "name": "_getChainId",
      "outputs": [
        {
          "internalType": "uint256",
          "name": "chainId",
          "type": "uint256"
        }
      ],
      "stateMutability": "view",
      "type": "function"
    },
    {
      "inputs": [],
      "name": "eip712Domain",
      "outputs": [
        {
          "internalType": "bytes1",
          "name": "fields",
          "type": "bytes1"
        },
        {
          "internalType": "string",
          "name": "name",
          "type": "string"
        },
        {
          "internalType": "string",
          "name": "version",
          "type": "string"
        },
        {
          "internalType": "uint256",
          "name": "chainId",
          "type": "uint256"
        },
        {
          "internalType": "address",
          "name": "verifyingContract",
          "type": "address"
        },
        {
          "internalType": "bytes32",
          "name": "salt",
          "type": "bytes32"
        },
        {
          "internalType": "uint256[]",
          "name": "extensions",
          "type": "uint256[]"
        }
      ],
      "stateMutability": "view",
      "type": "function"
    },
    {
      "inputs": [
        {
          "internalType": "string",
          "name": "message",
          "type": "string"
        },
        {
          "internalType": "string",
          "name": "latitude",
          "type": "string"
        },
        {
          "internalType": "string",
          "name": "longitude",
          "type": "string"
        },
        {
          "internalType": "uint256",
          "name": "time",
          "type": "uint256"
        },
        {
          "internalType": "uint256",
          "name": "tier",
          "type": "uint256"
        },
        {
          "internalType": "bytes",
          "name": "_signature",
          "type": "bytes"
        }
      ],
      "name": "validateMessage",
      "outputs": [
        {
          "internalType": "address",
          "name": "",
          "type": "address"
        }
      ],
      "stateMutability": "view",
      "type": "function"
    }
  ],
  "bytecode": "0x6101606040523480156200001257600080fd5b5060405162000c1738038062000c178339810160408190526200003591620002f3565b81816200004482600062000114565b610120526200005581600162000114565b61014052815160208084019190912060e052815190820120610100524660a052620000d260e051610100516040805160008051602062000bf783398151915260208201529081019290925260608201524660808201523060a082015260009060c00160405160208183030381529060405280519060200120905090565b60809081523060c0819052604080519283018152868352602083018690524690830152606082015262000108925090506200014d565b60025550620005129050565b600060208351101562000134576200012c83620001da565b905062000147565b81620001418482620003ec565b5060ff90505b92915050565b600060008051602062000bf783398151915282600001518051906020012083602001518051906020012084604001518560600151604051602001620001bd9594939291909485526020850193909352604084019190915260608301526001600160a01b0316608082015260a00190565b604051602081830303815290604052805190602001209050919050565b600080829050601f8151111562000211578260405163305a27a960e01b8152600401620002089190620004b8565b60405180910390fd5b80516200021e82620004ed565b179392505050565b634e487b7160e01b600052604160045260246000fd5b60005b83811015620002595781810151838201526020016200023f565b50506000910152565b600082601f8301126200027457600080fd5b81516001600160401b038082111562000291576200029162000226565b604051601f8301601f19908116603f01168101908282118183101715620002bc57620002bc62000226565b81604052838152866020858801011115620002d657600080fd5b620002e98460208301602089016200023c565b9695505050505050565b600080604083850312156200030757600080fd5b82516001600160401b03808211156200031f57600080fd5b6200032d8683870162000262565b935060208501519150808211156200034457600080fd5b50620003538582860162000262565b9150509250929050565b600181811c908216806200037257607f821691505b6020821081036200039357634e487b7160e01b600052602260045260246000fd5b50919050565b601f821115620003e757600081815260208120601f850160051c81016020861015620003c25750805b601f850160051c820191505b81811015620003e357828155600101620003ce565b5050505b505050565b81516001600160401b0381111562000408576200040862000226565b62000420816200041984546200035d565b8462000399565b602080601f8311600181146200045857600084156200043f5750858301515b600019600386901b1c1916600185901b178555620003e3565b600085815260208120601f198616915b82811015620004895788860151825594840194600190910190840162000468565b5085821015620004a85787850151600019600388901b60f8161c191681555b5050505050600190811b01905550565b6020815260008251806020840152620004d98160408501602087016200023c565b601f01601f19169190910160400192915050565b80516020808301519190811015620003935760001960209190910360031b1b16919050565b60805160a05160c05160e05161010051610120516101405161069b6200055c600039600060d70152600060ad0152600050506000505060005050600050506000505061069b6000f3fe608060405234801561001057600080fd5b50600436106100415760003560e01c806302346b051461004657806384b0196e14610059578063fa09da0714610074575b600080fd5b6040514681526020015b60405180910390f35b61006161009f565b604051610050979695949392919061045c565b610087610082366004610595565b610127565b6040516001600160a01b039091168152602001610050565b6000606080828080836100d27f000000000000000000000000000000000000000000000000000000000000000083610183565b6100fd7f00000000000000000000000000000000000000000000000000000000000000006001610183565b60408051600080825260208201909252600f60f81b9b939a50919850469750309650945092509050565b6000806040518060a00160405280898152602001888152602001878152602001858152602001868152509050600080600061016186610230565b919450925090506101748484848461025f565b9b9a5050505050505050505050565b606060ff831461019d5761019683610309565b905061022a565b8180546101a990610654565b80601f01602080910402602001604051908101604052809291908181526020018280546101d590610654565b80156102225780601f106101f757610100808354040283529160200191610222565b820191906000526020600020905b81548152906001019060200180831161020557829003601f168201915b505050505090505b92915050565b6000806000835160411461024357600080fd5b5050506020810151604082015160609092015160001a92909190565b60008060025461026e87610348565b60405161190160f01b60208201526022810192909252604282015260620160408051601f1981840301815282825280516020918201206000845290830180835281905260ff8816918301919091526060820186905260808201859052915060019060a0016020604051602081039080840390855afa1580156102f4573d6000803e3d6000fd5b5050604051601f190151979650505050505050565b60606000610316836103ee565b604080516020808252818301909252919250600091906020820181803683375050509182525060208101929092525090565b60007facf5fe31302e000a021505d68f64f59a958ed052954af199025629c07a5c0912826000015180519060200120836020015180519060200120846040015180519060200120856060015186608001516040516020016103d196959493929190958652602086019490945260408501929092526060840152608083015260a082015260c00190565b604051602081830303815290604052805190602001209050919050565b600060ff8216601f81111561022a57604051632cd44ac360e21b815260040160405180910390fd5b6000815180845260005b8181101561043c57602081850181015186830182015201610420565b506000602082860101526020601f19601f83011685010191505092915050565b60ff60f81b881681526000602060e08184015261047c60e084018a610416565b838103604085015261048e818a610416565b606085018990526001600160a01b038816608086015260a0850187905284810360c0860152855180825283870192509083019060005b818110156104e0578351835292840192918401916001016104c4565b50909c9b505050505050505050505050565b634e487b7160e01b600052604160045260246000fd5b600082601f83011261051957600080fd5b813567ffffffffffffffff80821115610534576105346104f2565b604051601f8301601f19908116603f0116810190828211818310171561055c5761055c6104f2565b8160405283815286602085880101111561057557600080fd5b836020870160208301376000602085830101528094505050505092915050565b60008060008060008060c087890312156105ae57600080fd5b863567ffffffffffffffff808211156105c657600080fd5b6105d28a838b01610508565b975060208901359150808211156105e857600080fd5b6105f48a838b01610508565b9650604089013591508082111561060a57600080fd5b6106168a838b01610508565b9550606089013594506080890135935060a089013591508082111561063a57600080fd5b5061064789828a01610508565b9150509295509295509295565b600181811c9082168061066857607f821691505b60208210810361068857634e487b7160e01b600052602260045260246000fd5b5091905056fea164736f6c6343000814000a8b73c3c69bb8fe3d512ecc4cf759cc79239f7b179b0ffacaa9a75d522b39400f",
  "linkReferences": {},
  "deployedLinkReferences": {}
}