{
  "_format": "hh-sol-artifact-1",
  "contractName": "WorldWideWeb3",
  "sourceName": "contracts/WorldWideWeb3.sol",
  "abi": [
    {
      "inputs": [
        {
          "internalType": "string",
          "name": "_name",
          "type": "string"
        },
        {
          "internalType": "string",
          "name": "_version",
          "type": "string"
        },
        {
          "internalType": "address",
          "name": "_validator",
          "type": "address"
        },
        {
          "internalType": "string",
          "name": "_tokenName",
          "type": "string"
        },
        {
          "internalType": "string",
          "name": "_tokenSymbol",
          "type": "string"
        }
      ],
      "stateMutability": "nonpayable",
      "type": "constructor"
    },
    {
      "inputs": [],
      "name": "InvalidShortString",
      "type": "error"
    },
    {
      "inputs": [
        {
          "internalType": "string",
          "name": "str",
          "type": "string"
        }
      ],
      "name": "StringTooLong",
      "type": "error"
    },
    {
      "anonymous": false,
      "inputs": [
        {
          "indexed": true,
          "internalType": "address",
          "name": "owner",
          "type": "address"
        },
        {
          "indexed": true,
          "internalType": "address",
          "name": "spender",
          "type": "address"
        },
        {
          "indexed": false,
          "internalType": "uint256",
          "name": "value",
          "type": "uint256"
        }
      ],
      "name": "Approval",
      "type": "event"
    },
    {
      "anonymous": false,
      "inputs": [],
      "name": "EIP712DomainChanged",
      "type": "event"
    },
    {
      "anonymous": false,
      "inputs": [
        {
          "indexed": false,
          "internalType": "bool",
          "name": "started",
          "type": "bool"
        }
      ],
      "name": "MintStarted",
      "type": "event"
    },
    {
      "anonymous": false,
      "inputs": [
        {
          "indexed": false,
          "internalType": "address",
          "name": "account",
          "type": "address"
        },
        {
          "indexed": false,
          "internalType": "uint256",
          "name": "amount",
          "type": "uint256"
        }
      ],
      "name": "Minter",
      "type": "event"
    },
    {
      "anonymous": false,
      "inputs": [
        {
          "indexed": true,
          "internalType": "address",
          "name": "previousOwner",
          "type": "address"
        },
        {
          "indexed": true,
          "internalType": "address",
          "name": "newOwner",
          "type": "address"
        }
      ],
      "name": "OwnershipTransferred",
      "type": "event"
    },
    {
      "anonymous": false,
      "inputs": [
        {
          "indexed": false,
          "internalType": "address",
          "name": "account",
          "type": "address"
        },
        {
          "indexed": false,
          "internalType": "uint256",
          "name": "tier",
          "type": "uint256"
        },
        {
          "indexed": false,
          "internalType": "bytes",
          "name": "signature",
          "type": "bytes"
        }
      ],
      "name": "Signer",
      "type": "event"
    },
    {
      "anonymous": false,
      "inputs": [
        {
          "indexed": true,
          "internalType": "address",
          "name": "from",
          "type": "address"
        },
        {
          "indexed": true,
          "internalType": "address",
          "name": "to",
          "type": "address"
        },
        {
          "indexed": false,
          "internalType": "uint256",
          "name": "value",
          "type": "uint256"
        }
      ],
      "name": "Transfer",
      "type": "event"
    },
    {
      "inputs": [],
      "name": "_getChainId",
      "outputs": [
        {
          "internalType": "uint256",
          "name": "chainId",
          "type": "uint256"
        }
      ],
      "stateMutability": "view",
      "type": "function"
    },
    {
      "inputs": [
        {
          "internalType": "address",
          "name": "owner",
          "type": "address"
        },
        {
          "internalType": "address",
          "name": "spender",
          "type": "address"
        }
      ],
      "name": "allowance",
      "outputs": [
        {
          "internalType": "uint256",
          "name": "",
          "type": "uint256"
        }
      ],
      "stateMutability": "view",
      "type": "function"
    },
    {
      "inputs": [
        {
          "internalType": "address",
          "name": "spender",
          "type": "address"
        },
        {
          "internalType": "uint256",
          "name": "amount",
          "type": "uint256"
        }
      ],
      "name": "approve",
      "outputs": [
        {
          "internalType": "bool",
          "name": "",
          "type": "bool"
        }
      ],
      "stateMutability": "nonpayable",
      "type": "function"
    },
    {
      "inputs": [
        {
          "internalType": "address",
          "name": "account",
          "type": "address"
        }
      ],
      "name": "balanceOf",
      "outputs": [
        {
          "internalType": "uint256",
          "name": "",
          "type": "uint256"
        }
      ],
      "stateMutability": "view",
      "type": "function"
    },
    {
      "inputs": [],
      "name": "decimals",
      "outputs": [
        {
          "internalType": "uint8",
          "name": "",
          "type": "uint8"
        }
      ],
      "stateMutability": "view",
      "type": "function"
    },
    {
      "inputs": [
        {
          "internalType": "address",
          "name": "spender",
          "type": "address"
        },
        {
          "internalType": "uint256",
          "name": "subtractedValue",
          "type": "uint256"
        }
      ],
      "name": "decreaseAllowance",
      "outputs": [
        {
          "internalType": "bool",
          "name": "",
          "type": "bool"
        }
      ],
      "stateMutability": "nonpayable",
      "type": "function"
    },
    {
      "inputs": [],
      "name": "eip712Domain",
      "outputs": [
        {
          "internalType": "bytes1",
          "name": "fields",
          "type": "bytes1"
        },
        {
          "internalType": "string",
          "name": "name",
          "type": "string"
        },
        {
          "internalType": "string",
          "name": "version",
          "type": "string"
        },
        {
          "internalType": "uint256",
          "name": "chainId",
          "type": "uint256"
        },
        {
          "internalType": "address",
          "name": "verifyingContract",
          "type": "address"
        },
        {
          "internalType": "bytes32",
          "name": "salt",
          "type": "bytes32"
        },
        {
          "internalType": "uint256[]",
          "name": "extensions",
          "type": "uint256[]"
        }
      ],
      "stateMutability": "view",
      "type": "function"
    },
    {
      "inputs": [
        {
          "internalType": "address",
          "name": "",
          "type": "address"
        }
      ],
      "name": "frensTrust",
      "outputs": [
        {
          "internalType": "uint256",
          "name": "",
          "type": "uint256"
        }
      ],
      "stateMutability": "view",
      "type": "function"
    },
    {
      "inputs": [
        {
          "internalType": "address",
          "name": "spender",
          "type": "address"
        },
        {
          "internalType": "uint256",
          "name": "addedValue",
          "type": "uint256"
        }
      ],
      "name": "increaseAllowance",
      "outputs": [
        {
          "internalType": "bool",
          "name": "",
          "type": "bool"
        }
      ],
      "stateMutability": "nonpayable",
      "type": "function"
    },
    {
      "inputs": [],
      "name": "mintStarted",
      "outputs": [
        {
          "internalType": "bool",
          "name": "",
          "type": "bool"
        }
      ],
      "stateMutability": "view",
      "type": "function"
    },
    {
      "inputs": [],
      "name": "mintTrust",
      "outputs": [],
      "stateMutability": "nonpayable",
      "type": "function"
    },
    {
      "inputs": [],
      "name": "name",
      "outputs": [
        {
          "internalType": "string",
          "name": "",
          "type": "string"
        }
      ],
      "stateMutability": "view",
      "type": "function"
    },
    {
      "inputs": [],
      "name": "owner",
      "outputs": [
        {
          "internalType": "address",
          "name": "",
          "type": "address"
        }
      ],
      "stateMutability": "view",
      "type": "function"
    },
    {
      "inputs": [],
      "name": "renounceOwnership",
      "outputs": [],
      "stateMutability": "nonpayable",
      "type": "function"
    },
    {
      "inputs": [],
      "name": "startMint",
      "outputs": [],
      "stateMutability": "nonpayable",
      "type": "function"
    },
    {
      "inputs": [
        {
          "internalType": "string",
          "name": "message",
          "type": "string"
        },
        {
          "internalType": "string",
          "name": "latitude",
          "type": "string"
        },
        {
          "internalType": "string",
          "name": "longitude",
          "type": "string"
        },
        {
          "internalType": "uint256",
          "name": "deadline",
          "type": "uint256"
        },
        {
          "internalType": "uint256",
          "name": "tier",
          "type": "uint256"
        },
        {
          "internalType": "bytes",
          "name": "signature",
          "type": "bytes"
        },
        {
          "internalType": "bytes",
          "name": "validatorSignature",
          "type": "bytes"
        }
      ],
      "name": "submitMessage",
      "outputs": [],
      "stateMutability": "payable",
      "type": "function"
    },
    {
      "inputs": [],
      "name": "symbol",
      "outputs": [
        {
          "internalType": "string",
          "name": "",
          "type": "string"
        }
      ],
      "stateMutability": "view",
      "type": "function"
    },
    {
      "inputs": [
        {
          "internalType": "uint256",
          "name": "",
          "type": "uint256"
        }
      ],
      "name": "tierPrice",
      "outputs": [
        {
          "internalType": "uint256",
          "name": "",
          "type": "uint256"
        }
      ],
      "stateMutability": "view",
      "type": "function"
    },
    {
      "inputs": [],
      "name": "totalSupply",
      "outputs": [
        {
          "internalType": "uint256",
          "name": "",
          "type": "uint256"
        }
      ],
      "stateMutability": "view",
      "type": "function"
    },
    {
      "inputs": [
        {
          "internalType": "address",
          "name": "to",
          "type": "address"
        },
        {
          "internalType": "uint256",
          "name": "amount",
          "type": "uint256"
        }
      ],
      "name": "transfer",
      "outputs": [
        {
          "internalType": "bool",
          "name": "",
          "type": "bool"
        }
      ],
      "stateMutability": "nonpayable",
      "type": "function"
    },
    {
      "inputs": [
        {
          "internalType": "address",
          "name": "from",
          "type": "address"
        },
        {
          "internalType": "address",
          "name": "to",
          "type": "address"
        },
        {
          "internalType": "uint256",
          "name": "amount",
          "type": "uint256"
        }
      ],
      "name": "transferFrom",
      "outputs": [
        {
          "internalType": "bool",
          "name": "",
          "type": "bool"
        }
      ],
      "stateMutability": "nonpayable",
      "type": "function"
    },
    {
      "inputs": [
        {
          "internalType": "address",
          "name": "newOwner",
          "type": "address"
        }
      ],
      "name": "transferOwnership",
      "outputs": [],
      "stateMutability": "nonpayable",
      "type": "function"
    },
    {
      "inputs": [
        {
          "internalType": "string",
          "name": "message",
          "type": "string"
        },
        {
          "internalType": "string",
          "name": "latitude",
          "type": "string"
        },
        {
          "internalType": "string",
          "name": "longitude",
          "type": "string"
        },
        {
          "internalType": "uint256",
          "name": "time",
          "type": "uint256"
        },
        {
          "internalType": "uint256",
          "name": "tier",
          "type": "uint256"
        },
        {
          "internalType": "bytes",
          "name": "_signature",
          "type": "bytes"
        }
      ],
      "name": "validateMessage",
      "outputs": [
        {
          "internalType": "address",
          "name": "",
          "type": "address"
        }
      ],
      "stateMutability": "view",
      "type": "function"
    },
    {
      "inputs": [],
      "name": "validator",
      "outputs": [
        {
          "internalType": "address",
          "name": "",
          "type": "address"
        }
      ],
      "stateMutability": "view",
      "type": "function"
    }
  ],
  "bytecode": "0x6101606040523480156200001257600080fd5b5060405162001f5038038062001f50833981016040819052620000359162000421565b8484818185856200004633620001f2565b60046200005483826200058b565b5060056200006382826200058b565b50620000759150839050600662000242565b610120526200008681600762000242565b61014052815160208084019190912060e052815190820120610100524660a0526200010360e051610100516040805160008051602062001f3083398151915260208201529081019290925260608201524660808201523060a082015260009060c00160405160208183030381529060405280519060200120905090565b60809081523060c0819052604080519283018152868352602083018690524690830152606082015262000139925090506200027b565b6008555050600b6020525050660aa87bee5380007f72c6bfb7988af3a1efa6568f02a999bc52252641c659d85961ca3d372b57d5cf55666a94d74f4300007fa50eece07c7db1631545c0069bd8f5f54d5935e215d59097edf258a44ba91634556003600052670429d069189e00007f64c15cc42be7899b001f818cf4433057002112c418d1d3a67cd5cb453051d33e55600980546001600160a01b0319166001600160a01b039290921691909117905550620006b19050565b600080546001600160a01b038381166001600160a01b0319831681178455604051919092169283917f8be0079c531659141344cd1fd0a4f28419497f9722a3daafe3b4186f6b6457e09190a35050565b600060208351101562000262576200025a8362000308565b905062000275565b816200026f84826200058b565b5060ff90505b92915050565b600060008051602062001f3083398151915282600001518051906020012083602001518051906020012084604001518560600151604051602001620002eb9594939291909485526020850193909352604084019190915260608301526001600160a01b0316608082015260a00190565b604051602081830303815290604052805190602001209050919050565b600080829050601f815111156200033f578260405163305a27a960e01b815260040162000336919062000657565b60405180910390fd5b80516200034c826200068c565b179392505050565b634e487b7160e01b600052604160045260246000fd5b60005b83811015620003875781810151838201526020016200036d565b50506000910152565b600082601f830112620003a257600080fd5b81516001600160401b0380821115620003bf57620003bf62000354565b604051601f8301601f19908116603f01168101908282118183101715620003ea57620003ea62000354565b816040528381528660208588010111156200040457600080fd5b620004178460208301602089016200036a565b9695505050505050565b600080600080600060a086880312156200043a57600080fd5b85516001600160401b03808211156200045257600080fd5b6200046089838a0162000390565b965060208801519150808211156200047757600080fd5b6200048589838a0162000390565b604089015190965091506001600160a01b0382168214620004a557600080fd5b606088015191945080821115620004bb57600080fd5b620004c989838a0162000390565b93506080880151915080821115620004e057600080fd5b50620004ef8882890162000390565b9150509295509295909350565b600181811c908216806200051157607f821691505b6020821081036200053257634e487b7160e01b600052602260045260246000fd5b50919050565b601f8211156200058657600081815260208120601f850160051c81016020861015620005615750805b601f850160051c820191505b8181101562000582578281556001016200056d565b5050505b505050565b81516001600160401b03811115620005a757620005a762000354565b620005bf81620005b88454620004fc565b8462000538565b602080601f831160018114620005f75760008415620005de5750858301515b600019600386901b1c1916600185901b17855562000582565b600085815260208120601f198616915b82811015620006285788860151825594840194600190910190840162000607565b5085821015620006475787850151600019600388901b60f8161c191681555b5050505050600190811b01905550565b6020815260008251806020840152620006788160408501602087016200036a565b601f01601f19169190910160400192915050565b80516020808301519190811015620005325760001960209190910360031b1b16919050565b60805160a05160c05160e051610100516101205161014051611833620006fd60003960006106d0015260006106a5015260005050600050506000505060005050600050506118336000f3fe60806040526004361061014b5760003560e01c806372e09af2116100b6578063a9059cbb1161006f578063a9059cbb146103b9578063a9722cf3146103d9578063d97cb71f146103fa578063dd62ed3e1461040d578063f2fde38b1461042d578063fa09da071461044d57600080fd5b806372e09af2146102e4578063826d33791461031157806384b0196e1461033e5780638da5cb5b1461036657806395d89b4114610384578063a457c2d71461039957600080fd5b8063313ce56711610108578063313ce56714610210578063395093511461022c5780633a5381b51461024c57806359b7df701461028457806370a0823114610299578063715018a6146102cf57600080fd5b806302346b051461015057806306fdde0314610172578063095ea7b31461019457806318160ddd146101c457806323b872dd146101d95780632be09561146101f9575b600080fd5b34801561015c57600080fd5b50465b6040519081526020015b60405180910390f35b34801561017e57600080fd5b5061018761046d565b60405161016991906113bb565b3480156101a057600080fd5b506101b46101af3660046113f1565b6104ff565b6040519015158152602001610169565b3480156101d057600080fd5b5060035461015f565b3480156101e557600080fd5b506101b46101f436600461141b565b610519565b34801561020557600080fd5b5061020e61053d565b005b34801561021c57600080fd5b5060405160128152602001610169565b34801561023857600080fd5b506101b46102473660046113f1565b61059d565b34801561025857600080fd5b5060095461026c906001600160a01b031681565b6040516001600160a01b039091168152602001610169565b34801561029057600080fd5b5061020e6105bf565b3480156102a557600080fd5b5061015f6102b4366004611457565b6001600160a01b031660009081526001602052604090205490565b3480156102db57600080fd5b5061020e610683565b3480156102f057600080fd5b5061015f6102ff366004611457565b600a6020526000908152604090205481565b34801561031d57600080fd5b5061015f61032c366004611472565b600b6020526000908152604090205481565b34801561034a57600080fd5b50610353610697565b604051610169979695949392919061148b565b34801561037257600080fd5b506000546001600160a01b031661026c565b34801561039057600080fd5b50610187610720565b3480156103a557600080fd5b506101b46103b43660046113f1565b61072f565b3480156103c557600080fd5b506101b46103d43660046113f1565b6107aa565b3480156103e557600080fd5b506009546101b490600160a01b900460ff1681565b61020e6104083660046115c4565b6107b8565b34801561041957600080fd5b5061015f6104283660046116a9565b610a03565b34801561043957600080fd5b5061020e610448366004611457565b610a2e565b34801561045957600080fd5b5061026c6104683660046116dc565b610aa7565b60606004805461047c9061179b565b80601f01602080910402602001604051908101604052809291908181526020018280546104a89061179b565b80156104f55780601f106104ca576101008083540402835291602001916104f5565b820191906000526020600020905b8154815290600101906020018083116104d857829003601f168201915b5050505050905090565b60003361050d818585610b03565b60019150505b92915050565b600033610527858285610c28565b610532858585610ca2565b506001949350505050565b610545610e4d565b6009805460ff60a01b1916600160a01b908117918290556040517edc88d9c7529d0f10e4bfa9d34fe6c22887e5f76a94be52db285cff07ba8f959261059392900460ff161515815260200190565b60405180910390a1565b60003361050d8185856105b08383610a03565b6105ba91906117d5565b610b03565b6009543390600160a01b900460ff166106165760405162461bcd60e51b8152602060048201526014602482015273135a5b9d081b9bdd081cdd185c9d1959081e595d60621b60448201526064015b60405180910390fd5b6001600160a01b0381166000908152600a60205260408120805491905561063d8282610ea7565b604080516001600160a01b0384168152602081018390527f158f4fdc939d59bb841b6bd6d8d8215cd7e64c6f5ed226c59e3157b8a51a279b910160405180910390a15050565b61068b610e4d565b6106956000610f68565b565b6000606080828080836106cb7f00000000000000000000000000000000000000000000000000000000000000006006610fb8565b6106f67f00000000000000000000000000000000000000000000000000000000000000006007610fb8565b60408051600080825260208201909252600f60f81b9b939a50919850469750309650945092509050565b60606005805461047c9061179b565b6000338161073d8286610a03565b90508381101561079d5760405162461bcd60e51b815260206004820152602560248201527f45524332303a2064656372656173656420616c6c6f77616e63652062656c6f77604482015264207a65726f60d81b606482015260840161060d565b6105328286868403610b03565b60003361050d818585610ca2565b336107c7888888888888610aa7565b6001600160a01b0316146108115760405162461bcd60e51b8152602060048201526011602482015270496e76616c6964207369676e617475726560781b604482015260640161060d565b6009546001600160a01b031661082b888888888887610aa7565b6001600160a01b0316146108815760405162461bcd60e51b815260206004820152601b60248201527f496e76616c69642076616c696461746f72207369676e61747572650000000000604482015260640161060d565b6000831180156108915750600483105b6108cc5760405162461bcd60e51b815260206004820152600c60248201526b34b73b30b634b2103a34b2b960a11b604482015260640161060d565b83421061090d5760405162461bcd60e51b815260206004820152600f60248201526e70617373656420646561646c696e6560881b604482015260640161060d565b600954600160a01b900460ff166109a5576000838152600b6020526040902054341461097b5760405162461bcd60e51b815260206004820152601860248201527f696e636f727265637420707269636520666f7220746965720000000000000000604482015260640161060d565b336000908152600a60205260408120805434929061099a9084906117d5565b909155506109bf9050565b6000838152600b60205260409020546109bf903390611063565b7f4de6bc4cd4b4de1907cdbc178d12d48944d640834a9740877b7b4b36f00fa1693384846040516109f2939291906117f6565b60405180910390a150505050505050565b6001600160a01b03918216600090815260026020908152604080832093909416825291909152205490565b610a36610e4d565b6001600160a01b038116610a9b5760405162461bcd60e51b815260206004820152602660248201527f4f776e61626c653a206e6577206f776e657220697320746865207a65726f206160448201526564647265737360d01b606482015260840161060d565b610aa481610f68565b50565b6000806040518060a001604052808981526020018881526020018781526020018581526020018681525090506000806000610ae18661118f565b91945092509050610af4848484846111be565b9b9a5050505050505050505050565b6001600160a01b038316610b655760405162461bcd60e51b8152602060048201526024808201527f45524332303a20617070726f76652066726f6d20746865207a65726f206164646044820152637265737360e01b606482015260840161060d565b6001600160a01b038216610bc65760405162461bcd60e51b815260206004820152602260248201527f45524332303a20617070726f766520746f20746865207a65726f206164647265604482015261737360f01b606482015260840161060d565b6001600160a01b0383811660008181526002602090815260408083209487168084529482529182902085905590518481527f8c5be1e5ebec7d5bd14f71427d1e84f3dd0314c0f7b2291e5b200ac8c7c3b92591015b60405180910390a3505050565b6000610c348484610a03565b90506000198114610c9c5781811015610c8f5760405162461bcd60e51b815260206004820152601d60248201527f45524332303a20696e73756666696369656e7420616c6c6f77616e6365000000604482015260640161060d565b610c9c8484848403610b03565b50505050565b6001600160a01b038316610d065760405162461bcd60e51b815260206004820152602560248201527f45524332303a207472616e736665722066726f6d20746865207a65726f206164604482015264647265737360d81b606482015260840161060d565b6001600160a01b038216610d685760405162461bcd60e51b815260206004820152602360248201527f45524332303a207472616e7366657220746f20746865207a65726f206164647260448201526265737360e81b606482015260840161060d565b6001600160a01b03831660009081526001602052604090205481811015610de05760405162461bcd60e51b815260206004820152602660248201527f45524332303a207472616e7366657220616d6f756e7420657863656564732062604482015265616c616e636560d01b606482015260840161060d565b6001600160a01b0380851660008181526001602052604080822086860390559286168082529083902080548601905591517fddf252ad1be2c89b69c2b068fc378daa952ba7f163c4a11628f55a4df523b3ef90610e409086815260200190565b60405180910390a3610c9c565b6000546001600160a01b031633146106955760405162461bcd60e51b815260206004820181905260248201527f4f776e61626c653a2063616c6c6572206973206e6f7420746865206f776e6572604482015260640161060d565b6001600160a01b038216610efd5760405162461bcd60e51b815260206004820152601f60248201527f45524332303a206d696e7420746f20746865207a65726f206164647265737300604482015260640161060d565b8060036000828254610f0f91906117d5565b90915550506001600160a01b0382166000818152600160209081526040808320805486019055518481527fddf252ad1be2c89b69c2b068fc378daa952ba7f163c4a11628f55a4df523b3ef910160405180910390a35050565b600080546001600160a01b038381166001600160a01b0319831681178455604051919092169283917f8be0079c531659141344cd1fd0a4f28419497f9722a3daafe3b4186f6b6457e09190a35050565b606060ff8314610fd257610fcb83611268565b9050610513565b818054610fde9061179b565b80601f016020809104026020016040519081016040528092919081815260200182805461100a9061179b565b80156110575780601f1061102c57610100808354040283529160200191611057565b820191906000526020600020905b81548152906001019060200180831161103a57829003601f168201915b50505050509050610513565b6001600160a01b0382166110c35760405162461bcd60e51b815260206004820152602160248201527f45524332303a206275726e2066726f6d20746865207a65726f206164647265736044820152607360f81b606482015260840161060d565b6001600160a01b038216600090815260016020526040902054818110156111375760405162461bcd60e51b815260206004820152602260248201527f45524332303a206275726e20616d6f756e7420657863656564732062616c616e604482015261636560f01b606482015260840161060d565b6001600160a01b03831660008181526001602090815260408083208686039055600380548790039055518581529192917fddf252ad1be2c89b69c2b068fc378daa952ba7f163c4a11628f55a4df523b3ef9101610c1b565b600080600083516041146111a257600080fd5b5050506020810151604082015160609092015160001a92909190565b6000806008546111cd876112a7565b60405161190160f01b60208201526022810192909252604282015260620160408051601f1981840301815282825280516020918201206000845290830180835281905260ff8816918301919091526060820186905260808201859052915060019060a0016020604051602081039080840390855afa158015611253573d6000803e3d6000fd5b5050604051601f190151979650505050505050565b606060006112758361134d565b604080516020808252818301909252919250600091906020820181803683375050509182525060208101929092525090565b60007facf5fe31302e000a021505d68f64f59a958ed052954af199025629c07a5c09128260000151805190602001208360200151805190602001208460400151805190602001208560600151866080015160405160200161133096959493929190958652602086019490945260408501929092526060840152608083015260a082015260c00190565b604051602081830303815290604052805190602001209050919050565b600060ff8216601f81111561051357604051632cd44ac360e21b815260040160405180910390fd5b6000815180845260005b8181101561139b5760208185018101518683018201520161137f565b506000602082860101526020601f19601f83011685010191505092915050565b6020815260006113ce6020830184611375565b9392505050565b80356001600160a01b03811681146113ec57600080fd5b919050565b6000806040838503121561140457600080fd5b61140d836113d5565b946020939093013593505050565b60008060006060848603121561143057600080fd5b611439846113d5565b9250611447602085016113d5565b9150604084013590509250925092565b60006020828403121561146957600080fd5b6113ce826113d5565b60006020828403121561148457600080fd5b5035919050565b60ff60f81b881681526000602060e0818401526114ab60e084018a611375565b83810360408501526114bd818a611375565b606085018990526001600160a01b038816608086015260a0850187905284810360c0860152855180825283870192509083019060005b8181101561150f578351835292840192918401916001016114f3565b50909c9b505050505050505050505050565b634e487b7160e01b600052604160045260246000fd5b600082601f83011261154857600080fd5b813567ffffffffffffffff8082111561156357611563611521565b604051601f8301601f19908116603f0116810190828211818310171561158b5761158b611521565b816040528381528660208588010111156115a457600080fd5b836020870160208301376000602085830101528094505050505092915050565b600080600080600080600060e0888a0312156115df57600080fd5b873567ffffffffffffffff808211156115f757600080fd5b6116038b838c01611537565b985060208a013591508082111561161957600080fd5b6116258b838c01611537565b975060408a013591508082111561163b57600080fd5b6116478b838c01611537565b965060608a0135955060808a0135945060a08a013591508082111561166b57600080fd5b6116778b838c01611537565b935060c08a013591508082111561168d57600080fd5b5061169a8a828b01611537565b91505092959891949750929550565b600080604083850312156116bc57600080fd5b6116c5836113d5565b91506116d3602084016113d5565b90509250929050565b60008060008060008060c087890312156116f557600080fd5b863567ffffffffffffffff8082111561170d57600080fd5b6117198a838b01611537565b9750602089013591508082111561172f57600080fd5b61173b8a838b01611537565b9650604089013591508082111561175157600080fd5b61175d8a838b01611537565b9550606089013594506080890135935060a089013591508082111561178157600080fd5b5061178e89828a01611537565b9150509295509295509295565b600181811c908216806117af57607f821691505b6020821081036117cf57634e487b7160e01b600052602260045260246000fd5b50919050565b8082018082111561051357634e487b7160e01b600052601160045260246000fd5b60018060a01b038416815282602082015260606040820152600061181d6060830184611375565b9594505050505056fea164736f6c6343000814000a8b73c3c69bb8fe3d512ecc4cf759cc79239f7b179b0ffacaa9a75d522b39400f",
  "linkReferences": {},
  "deployedLinkReferences": {}
}